:1000000067C17EC380C17FC17EC17DC17CC17BC110
:100010007AC179C178C1FCCA25CB75C174C173C1DD
:1000200072C171C170C10A0330003000300031006C
:100030000E035500530042006100730070001C0362
:100040007700770077002E00660069007300630078
:1000500068006C002E0064006500040309040600BB
:10006000FF0901A1017508150126FF009508090186
:10007000810295080901910295080901B20201C0A7
:100080000A00000000000306BE0108000100000095
:10009000B4010800020000009C001400030057494E
:1000A0004E55534200000000000000000000800098
:1000B0000400010028004400650076006900630028
:1000C000650049006E007400650072006600610002
:1000D00063006500470055004900440000004E00E1
:1000E0007B004100440035003700440033004200EB
:1000F00039002D0031003100360036002D0034006B
:100100003300460038002D00380037003900300039
:100110002D0030004200450031003400440044000E
:10012000430037003500300034007D000000080037
:100130000200010088008000040001002800440043
:100140006500760069006300650049006E00740078
:10015000650072006600610063006500470055009D
:100160004900440000004E007B004100440035007F
:10017000370044003300420039002D0031003100C7
:10018000360036002D0034003300460038002D00C4
:1001900038003700390030002D00310042004500A2
:1001A0003100340044004400430037003500300083
:1001B00034007D000000080002000200880080007A
:1001C0000400010028004400650076006900630017
:1001D000650049006E0074006500720066006100F1
:1001E00063006500470055004900440000004E00D0
:1001F0007B004100440035003700440033004200DA
:1002000039002D0031003100360036002D00340059
:100210003300460038002D00380037003900300028
:100220002D003200420045003100340044004400FB
:10023000430037003500300034007D000000050F1A
:10024000350002141004005DF4EFC920D2314A9841
:10025000506075C56E493A1C100500DF60DDD88915
:1002600045C74C9CD2659D9E648A9F00000306BED4
:10027000015D0009024B0003010080FA090400003F
:1002800000FF00000209040100020300000209212E
:10029000010100012222000705810308000A070569
:1002A000010308000A0904020001030000020921F9
:1002B0000101000122220007058203080014120137
:1002C000010200000008C016DC0510010102030154
:1002D00011241FBECFE5D4E0DEBFCDBF10E0A0E605
:1002E000B0E0EEE5F7E102C005900D92AC36B10743
:1002F000D9F721E0ACE6B0E001C01D92AE3DB207F7
:10030000E1F701DA2ACA7CCE1F93CF93DF93FA017B
:1003100020919C002E31C9F0208124FF05C031813D
:1003200028E82327218302C02AE52083262FDC0129
:10033000CF010296EC013D91399321501216DCF366
:10034000EF01162FD9D11C5F1883DF91CF911F9138
:1003500008954CE950E0D8CF48EC50E0D5CFCF938A
:10036000DF936091AE00635067FD15C18091AB00D3
:10037000CCE0D0E0C81BD109CE54DF4F8091AA0059
:10038000803118F4CE0196D800C18D3209F0EBC04F
:10039000683009F0FAC083EC809391008AE580937D
:1003A00062001092A9002881822F807619F0CE0178
:1003B0006CD5C1C09A813C8110929A0089818111CB
:1003C00014C02F71223051F4313841F490919C00C7
:1003D00081E09E3109F080E080939A0010929B00AA
:1003E0002AE930E082E090E0A1C0282F2D7F213063
:1003F00091F4911197C0313809F094C0813011F017
:100400008EE101C08AE580939C008BE480939D007F
:100410008093C90087C0853019F49093AF0082C0E3
:10042000863009F061C08B81813049F48EEB92E017
:100430009093AD008093AC0082E190E051C0823097
:1004400049F483E792E09093AD008093AC008BE495
:1004500090E046C0833061F5911109C08AE590E0D3
:100460009093AD008093AC0084E090E039C091306F
:1004700049F48EE390E09093AD008093AC008CE162
:1004800090E02EC0923049F480E390E09093AD006C
:100490008093AC008EE090E023C09330F9F486E2C4
:1004A00090E09093AD008093AC008AE090E018C09B
:1004B000813249F485E892E09093AD008093AC00DE
:1004C00089E090E00DC0823249F48EE590E090938F
:1004D000AD008093AC0082E290E002C0CE01C2D4B5
:1004E00020E42093A90027C08830A1F0893019F4B6
:1004F0009093B10009C08A3081F08B3099F48BE47D
:1005000080939D008093C9008AE580939C0080932E
:10051000C80008C021EB30E002C02AE930E081E0E9
:1005200090E004C02AE930E080E090E03093AD0034
:100530002093AC000DC08F3F2FEF920749F4288124
:1005400027FF02C08E819F8120E82093A90006C06A
:100550002E813F812817390708F4C9019093610063
:100560008093600012C08091A90087FF0EC0CE0169
:10057000B2D68F3F21F48EE18093620006C08823BB
:1005800021F010926100109260008091AE00181668
:1005900014F41092AE008091620084FF62C08091DA
:1005A0006000909161008F3F2FEF920709F459C0CE
:1005B000BC018930910510F068E070E0861B970B54
:1005C00090936100809360009091910088E8892762
:1005D00080939100C62F662309F453C02091A9008F
:1005E00027FF07C082E990E0FBD5C82F893080F54E
:1005F00021C08091AC009091AD0026FF09C0A2E916
:10060000B0E0FC0124912D9331966150D9F707C0D9
:10061000DC01E2E9F0E02D9121936150E1F72FEF49
:100620002C0F30E02F5F3F4F820F931F9093AD0050
:100630008093AC006C2F82E990E05ED0CC5FCC3030
:1006400071F08FEF9FEF909361008093600007C07F
:100650008FEF9FEF9093610080936000CEE1C09395
:10066000620084E196B3937091F48150D9F71092AF
:10067000AF001092A8008AE580939C008093C80088
:1006800006C060E082E990E037D0C4E0DACFDF91C5
:10069000CF91089585B7826085BF8BB780648BBF8B
:1006A000ACE9B0E08BE411968C931197E8ECF0E0A4
:1006B00081838AE58C9380830895DC018FEF9FEF1F
:1006C000332715C02D912827722F22952727822F97
:1006D00026952695282723952270321777952795FA
:1006E000822F8927972F7695279597278227615004
:1006F00048F7809590950895E0DF8D939D93089538
:10070000CF93CFB7CF93C395B09BE9F7B09B09C008
:10071000B09B07C0B09B05C0B09B03C0B09B01C09D
:10072000A6C0DF93C091AB00DD27CE54DF4FB09B56
:1007300002C0DF91EBCF2F930F931F9306B32FEFE0
:1007400000FB20F94F933F9316B34FEF012700FBB7
:1007500021F93BE031C04E7F012F16B3216028C044
:10076000102F4D7F2260000006B329C04B7F24600C
:10077000012F000016B32BC016B3477F28602AC094
:100780004F7E06B320612CC04F7D16B320622FC070
:100790004F7B06B3206432C0422706B349934FEF24
:1007A0000000102710FB20F916B31370C9F1297F40
:1007B00091F2012700FB21F906B3237F89F2315022
:1007C00058F1102710FB22F916B3277E79F2012782
:1007D00000FB23F92F7C81F206B3102710FB24F9CC
:1007E0002F7971F200C016B3012700FB25F92F7392
:1007F00059F200C006B3102710FB26F9223040F250
:1008000000C016B3012700FB27F9243028F64F77E4
:10081000206816B30000F9CF10E41ABF00271CC0EF
:100820003B503195C31BD04010E41ABF0881033CF4
:1008300011F10B3401F12091A8001981110F12134D
:10084000EDCF4A81441F093659F10D3211F0013EB6
:1008500029F74F7009F0042F0093B0003F914F919A
:100860001F910F912F91DF91CAB7C6FD4CCFCF9149
:10087000CFBFCF9118952091B000222379F310912A
:10088000AE001123C1F53430C2F13093AE00209395
:10089000AA001091AB003BE0311B3093AB002DC0A0
:1008A0000091AE0001303CF50AE54F7049F43091FB
:1008B000620034FD24C000936200C1E9D0E023C08F
:1008C000423049F030919C0034FD19C000939C00E7
:1008D000CDE9D0E018C03091C80034FD10C00093BD
:1008E000C800C9ECD0E00FC02795A8F45150A9F476
:1008F000220F0000F9CF4AE503C042ED01C0432FAB
:10090000C4E1D0E032E017B31360C09A17BB08B35C
:1009100020E413E05F93012756E008BB279520F4FD
:10092000515021F4220FF9CF012756E000003B5A25
:1009300008BBD0F2279528F4515029F4220F00006B
:10094000F9CF012756E0279508BB20F4515021F438
:10095000220FF9CF012756E02991332308BB21F656
:100960000C7F1091AF00110FC651D04008BB11F0A1
:100970001093A80010E41ABF016017B31C7F402F2A
:100980004C7F5F9100C000C008BB17BB48BB66CF5F
:100990008FB9779BFECF8FB10895DC01CB0121E1A8
:1009A000B695A795979587952A95D1F72091D6006A
:1009B0002817D9F08093D600E091D400F091D500AB
:1009C0008DE40995E091D400F091D50080E009957F
:1009D000E091D400F091D5008091D6000995E09186
:1009E000D400F091D50080E009940895882319F08F
:1009F000883020F101C08CE028EC34E03093D50041
:100A00002093D4001EB891E09093D7008A3081F0F3
:100A100028F4883081F0893061F006C08B3031F0E5
:100A20008D3011F41DB8089581E08EB981E004C0C5
:100A30009EB982E001C083E08DB9089528E335E0D6
:100A40003093D5002093D40027E030E0281B3109F3
:100A500083E001C0880F2A95EAF78093D7000895B4
:100A600022B79091D70082B7821B8917E0F30895CF
:100A70001F93CF93DF93182FD8E0C0E017FF02C079
:100A8000C39A01C0C398110FCC0FB499CF5FC59A18
:100A9000E7DFC598E5DFD15089F78C2FDF91CF9143
:100AA0001F910895BD9ABB9ABA9AC49A939AC29A12
:100AB00081E067D1C2988FEF8093D6000895939814
:100AC00087B3837D87BBC498C3981DB810926C0010
:100AD00008950F931F93CF93DF9380916C00811142
:100AE0002EC08CE080936C002AC0C091D400D091BD
:100AF000D50084E0C83CD80719F48DB180658DB964
:100B000013E0C29A81E03DD1C2988EE33AD18CEADB
:100B1000FE01099583E5FE01099580E0FE01099536
:100B2000082F80E0FE010995033579F0115049F74F
:100B30001DB880916C00815080936C0057DF8091CC
:100B40006C008111D2CF81E001C080E0DF91CF91B4
:100B50001F910F910895CF92DF92EF92FF926B0158
:100B60007C011BDF8C2D8170880F880F880FE0912E
:100B7000D400F091D50080620995D701C60129E023
:100B8000B695A795979587952A95D1F7E091D400CA
:100B9000F091D5000995D701C601B695A79597950F
:100BA0008795E091D400F091D5000995E091D400AB
:100BB000F091D50080E0FF90EF90DF90CF90099406
:100BC000CF92DF92EF92FF92CF93DF936B017C0184
:100BD000C42FD22FE2DE8C2D8170880F880F880FF2
:100BE000E091D400F091D50080640995D701C60149
:100BF00029E0B695A795979587952A95D1F7E09125
:100C0000D400F091D5000995D701C601B695A795F6
:100C100097958795E091D400F091D5000995E091E2
:100C2000D400F091D5008C2F0995DD2321F0CF372A
:100C300021F48FE0A6D080E00FC0D2B7CEE1C7018B
:100C4000B60189DF8F37B9F782B78D1B8D33B8F3C3
:100C5000D2B7C150A1F781E0DF91CF91FF90EF9023
:100C6000DF90CF900895CF92DF92EF92FF92CF93D3
:100C7000DF936B017C01C42F90DEE091D400F091F2
:100C8000D5008CE40995D701C60129E0B695A79552
:100C9000979587952A95D1F7E091D400F091D500EA
:100CA0000995D701C601B695A79597958795E091C7
:100CB000D400F091D5000995E091D400F091D500D1
:100CC00080E00995CF3F19F48FE05BD010C0D2B718
:100CD000CEE1C701B6013FDF8F3F49F482B78D1BDC
:100CE0008D33B8F3D2B7C150A1F781E001C080E0E5
:100CF000DF91CF91FF90EF90DF90CF900895CF9349
:100D0000DF93EC01E091D400F091D50080EA0995E1
:100D1000E091D400F091D5008D2F0995E091D40099
:100D2000F091D5008C2F0995E091D400F091D50079
:100D300080E0DF91CF9109941F93CF93DF93D82F59
:100D4000192FC62FE091D400F091D50080EC0995C1
:100D5000E091D400F091D500812F0995E091D40065
:100D6000F091D5008D2F0995E091D400F091D50038
:100D70008C2F09958EE105D080E0DF91CF911F91F6
:100D8000089522B792B7921B9C33E0F38150C9F7C4
:100D90000895BD9ABB98C39A50E217D05A95E9F7C7
:100DA0000895AC0188E605D0842F03D089E601D0F0
:100DB000852F0FD028E030E0382780FB869506D0BD
:100DC0002A95D1F730FB02D000D06894BB98C39A23
:100DD00016F0C398BB9AE091D800F091D9003197F2
:100DE000F0F7C59AE6B3E3FBE091D800F091D900A3
:100DF0003197F0F7C598089520ECE7DF46F42A957F
:100E0000E1F780E02AE1E5DF2A95E9F7DECF28E087
:100E100030E0DBDF869587F938272A95D1F7D5DFD3
:100E200027F9322772F3D1DFD0CFDB01742FB9DF7E
:100E300084E2BFDFE1DF8D937A95D1F70895DB017E
:100E4000742FAFDF83EFB5DF8DE1B3DF84E6B1DF71
:100E50008D91AFDF82E7ADDFCFDF8078D9F77A956C
:100E600089F70895FC0123812F3061F4828181117B
:100E700009C08EE392E09093AD008093AC0085E3CF
:100E800090E0089580E090E00895CF93DF93EC0127
:100E90008881982F9076903409F073C18F7109F092
:100EA00094C18981813049F4DED380916C009EDD4C
:100EB000109277008E9AF6DD88C1823011F4FFDD42
:100EC00001C1833081F5E091D400F091D5008A8191
:100ED000099580938900E091D400F091D5008B8131
:100EE000099580938A00E091D400F091D5008C811F
:100EF000099580938B00E091D400F091D5008D810D
:100F0000099580938C008091630090916400009714
:100F100009F458C160916500262F2873462F44704C
:100F20006370B3D34FC18430D1F4809177008111C5
:100F30000EC08A819B81092E000CAA0BBB0B8093EB
:100F4000730090937400A0937500B09376008E8127
:100F50009F81909372008093710082E02EC1873050
:100F6000D1F48091770081110EC08A819B81092E76
:100F7000000CAA0BBB0B8093730090937400A0939A
:100F80007500B09376008E819F819093720080935C
:100F9000710083E012C1853011F49BDD98C086306A
:100FA00079F58091770081110EC08A819B81092E8D
:100FB000000CAA0BBB0B8093730090937400A0935A
:100FC0007500B09376003C812D81822F8F708093C5
:100FD0006E00822F807F40E1849FC0011124830F27
:100FE000911D9093700080936F0020FD80936D00A1
:100FF0008E819F81909372008093710081E0DDC0AB
:10100000883001F58091770081110EC08A819B8123
:10101000092E000CAA0BBB0B8093730090937400F5
:10102000A0937500B09376001092700010926F003C
:1010300010926E008E819F81909372008093710058
:1010400084E0BBC0893081F481E0809377008A819D
:101050009B81AC81BD818093730090937400A093B9
:101060007500B0937600B1C08A3031F48A818093E4
:101070006C00109289002DC08B3081F48A819B8195
:101080009093D9008093D800C29ABA9A83E079DE0F
:10109000C2988E9A80E175DE7CDE97C08C30A1F418
:1010A00080EC87DE80E085DE8AE06BDEC29A85E038
:1010B00068DEC29885E065DE87B3837D87BB88B331
:1010C000837D88BB8E9881C08D3031F495DE80930E
:1010D000890081E090E07BC08E3019F48A8169DE5E
:1010E00074C08F30B1F48A819B81092E000CAA0B49
:1010F000BB0B8093730090937400A0937500B09322
:1011000076008E819F81909372008093710085E0BC
:1011100054C08031B1F48A819B81092E000CAA0B46
:10112000BB0B8093730090937400A0937500B093F1
:1011300076008E819F81909372008093710086E08B
:101140003CC08F3769F4809167008093890080915B
:10115000680080938A0010928B0010928C0032C03D
:101160008D3599F58C81873081F580E48093A900D5
:1011700080E890E09093AD008093AC008EEB91E01E
:101180002CC0903211F58F718130F9F48B8183304E
:10119000E1F48981813019F0893051F016C083E67D
:1011A00090E09093AD008093AC0088E090E015C093
:1011B0008D819E81892B49F087E0809378008FEFA5
:1011C0009FEF05C084E090E002C080E090E029E855
:1011D00030E03093AD002093AC00DF91CF910895C3
:1011E000EF92FF920F931F93CF93C62F2091780019
:1011F0003EEF320F323028F48C017C01E60EF11CF8
:101200004CC0253009F05EC0462FBC0180917300B0
:10121000909174000ADE8091730090917400A09107
:101220007500B09176008C0F911DA11DB11D8093AA
:10123000730090937400A0937500B093760044C03F
:1012400080917800823069F560917300709174002C
:1012500080917500909176007EDCF801808380910A
:10126000730090917400A0917500B0917600019682
:10127000A11DB11D8093730090937400A09375001D
:10128000B0937600809171009091720001979093D5
:101290007200809371000F5F1F4F0E151F0581F6BE
:1012A00006C0809173009091740029DDD6CFC830BC
:1012B00030F08091710090917200892B29F4109286
:1012C000780002C08FEF01C08C2FCF911F910F913A
:1012D000FF90EF900895CF92DF92EF92FF920F93DD
:1012E0001F93CF937C01C62F80917800813011F03D
:1012F000843031F487016701CC0ED11CC0E06AC094
:10130000863029F0873009F0C8C0C0E0A7C0462F5A
:10131000B701809173009091740091DD809173000A
:1013200090917400A0917500B09176008C0F911D82
:10133000A11DB11D8093730090937400A09375005C
:10134000B093760080917100909172008C1B91098E
:101350009093720080937100892B09F0A0C01092C5
:10136000780081E09FC080917800813009F051C001
:1013700020916F0030917000609173007091740043
:101380008091750090917600232B41F521E0F801C2
:10139000408116DC809171009091720001979093CA
:1013A000720080937100892BE1F18091730090911C
:1013B0007400A0917500B09176000196A11DB11D39
:1013C0008093730090937400A0937500B09376009F
:1013D0000F5F1F4FC016D10631F640C020E0F80164
:1013E0004081EEDB80916D00815080936D00811112
:1013F000D1CF6091730070917400809175009091CD
:101400007600F80140812FDC80916F0080936D00A1
:10141000C1CFF801608180917300909174008CDCE1
:10142000B9CF1092780080916E0081FF15C0809135
:101430006D0090E020916F0030917000821793074B
:1014400059F06091730070917400809175009091D3
:101450007600F801408107DCC1E0A7CF80917800D9
:101460008730F9F4F7018081809363008181809354
:101470006400828180936500F6D080916300909132
:101480006400009709F46BCF60916500262F2873E4
:10149000462F44706370F9D062CF8FEF03C080E0B5
:1014A00001C08C2FCF911F910F91FF90EF90DF9093
:1014B000CF900895FC019781992331F1983018F06D
:1014C000662311F1962F579B1FC08091DB0020915E
:1014D000DA00821B292F30E0280F311D2937310512
:1014E0001CF08FEF8093AE00DF01E091DB00EF771F
:1014F000F0E08D91E652FF4F82838091DB008F5F99
:101500008093DB00915089F708951FBA1EBA90911D
:101510005D0180915C019817E1F08EB39FB307974E
:10152000C1F08EB39FB39C012F5F3F4F3FBB2EBBDB
:10153000E0915C01EF77F0E0E45AFE4F2281FC017C
:10154000EF57FF4F208380915C018F5F80935C0198
:10155000DECF8EB39FB38093880090915D01809120
:101560005C019817E1F08EB39FB30797C1F4E09147
:101570005C01EF77F0E0E45AFE4F82812EB33FB377
:10158000482F50E02417350750F4EEB3FFB3EF5760
:10159000FF4F808380915C018F5F80935C0168E0E6
:1015A00081E890E0D6C6E9E7F0E08091780080839A
:1015B000118212821382148215821682178268E0C9
:1015C000CF01CAC61F920F920FB60F9211248F93AC
:1015D0009F93EF93FF9380915D0190915C01891B34
:1015E000803869F0E0915D01EF77F0E08DB3E45A67
:1015F000FE4F828380915D018F5F80935D01FF913B
:10160000EF919F918F910F900FBE0F901F901895A3
:101610000CB00DBAD7CF1F920F920FB60F921124B4
:101620008F939F93EF93FF939091DB008091DA006B
:10163000981771F0E091DA00EF77F0E0E652FF4F93
:1016400082818CB98091DA008F5F8093DA0001C0CB
:101650005598FF91EF919F918F910F900FBE0F9032
:101660001F901895D8CF949890981AB855981092C2
:10167000DB001092DA0010925D0110925C01809103
:10168000AE0087FD1092AE000895FF920F931F9356
:10169000CF93DF93182F092FD62FF42EC22FE3DF1D
:1016A0001092DB001092DA0010925D0110925C0142
:1016B00082E08BB9D13021F0D23021F480E303C035
:1016C00080E201C080E094E0F91201C08860C0317E
:1016D00051F020F4C83051F4826008C0C83129F0BC
:1016E000C03219F003C0846001C0866080BD00BDB7
:1016F00019B988E98AB9909A949ADF91CF911F918C
:101700000F91FF90089583E083BF8FEF87BB8FE138
:1017100038DB17BA8F9ABED77894559908C0909144
:10172000DB008091DA00981711F0559A0BC0909168
:10173000DB008091DA00981305C08091AE0087FD30
:101740001092AE000CD680919C0084FDDEDE80916C
:0E175000C80084FFE2CF27DFE0CFF894FFCF80
:0C175E00FFFF5A000000008100000000A6
:00000001FF
